<pre style='color:#000020;background:#f6f8ff;'>2022-12-06 14:46:59.529 +08:00 [DBG] FSEND: 8=FIX.4.4|9=70|35=A|34=1|49=EXECUTOR|52=20221206-06:46:59.526|56=CLIENT1|98=0|108=30|10=102|
2022-12-06 14:47:01.498 +08:00 [DBG] FRECV: 8=FIX.4.4|9=137|35=D|34=2|49=CLIENT1|52=20221206-06:47:01.496|56=EXECUTOR|11=71e048a0e6|38=1|40=2|44=10.1|54=1|55=ATOMUSDT|59=1|60=20221206-14:47:01.488|10=109|
2022-12-06 14:47:01.517 +08:00 [DBG] FSEND: 8=FIX.4.4|9=272|35=8|34=2|49=EXECUTOR|52=20221206-06:47:01.515|56=CLIENT1|6=10.1|11=71e048a0e6|14=0|17=1|31=10.1|32=1|37=1|38=1|39=0|40=2|44=10.1|54=1|55=ATOMUSDT|59=1|60=20221206-06:47:01.507|150=0|151=1|442=1|528=A|453=3|448=CLIENT1|447=D|452=5|448=10KM|447=D|452=1|448=CPP|447=D|452=1|10=066|
2022-12-06 14:47:02.625 +08:00 [DBG] FRECV: 8=FIX.4.4|9=134|35=D|34=3|49=CLIENT1|52=20221206-06:47:02.624|56=EXECUTOR|11=084fe43f0e|18=6|38=1|40=1|54=1|55=ATOMUSDT|59=1|60=20221206-14:47:02.623|10=007|
2022-12-06 14:47:02.632 +08:00 [DBG] FSEND: 8=FIX.4.4|9=115|35=j|34=3|49=EXECUTOR|52=20221206-06:47:02.632|56=CLIENT1|45=3|58=Conditionally Required Field Missing|372=D|380=5|10=004|
2022-12-06 14:47:06.535 +08:00 [INF] TRADE: 8=FIX.4.4|9=272|35=8|34=4|49=EXECUTOR|52=20221206-06:47:06.534|56=CLIENT1|6=10.1|11=71e048a0e6|14=1|17=1|31=10.1|32=1|37=1|38=1|39=2|40=2|44=10.1|54=1|55=ATOMUSDT|59=1|60=20221206-06:47:01.507|150=F|151=0|442=1|528=A|453=3|448=CLIENT1|447=D|452=5|448=10KM|447=D|452=1|448=CPP|447=D|452=1|10=098|
2022-12-06 14:47:06.541 +08:00 [DBG] FSEND: 8=FIX.4.4|9=272|35=8|34=4|49=EXECUTOR|52=20221206-06:47:06.534|56=CLIENT1|6=10.1|11=71e048a0e6|14=1|17=1|31=10.1|32=1|37=1|38=1|39=2|40=2|44=10.1|54=1|55=ATOMUSDT|59=1|60=20221206-06:47:01.507|150=F|151=0|442=1|528=A|453=3|448=CLIENT1|447=D|452=5|448=10KM|447=D|452=1|448=CPP|447=D|452=1|10=098|
2022-12-06 14:47:09.229 +08:00 [DBG] FRECV: 8=FIX.4.4|9=113|35=V|34=4|49=CLIENT1|52=20221206-06:47:09.223|56=EXECUTOR|262=MARKETDATAID|263=0|264=0|267=1|269=0|146=1|55=LNUX|10=245|
2022-12-06 14:47:09.243 +08:00 [DBG] FSEND: 8=FIX.4.4|9=103|35=j|34=5|49=EXECUTOR|52=20221206-06:47:09.243|56=CLIENT1|45=4|58=Unsupported Message Type|372=V|380=3|10=177|
2022-12-06 14:47:17.111 +08:00 [DBG] FRECV: 8=FIX.4.4|9=73|35=H|34=5|49=CLIENT1|52=20221206-06:47:17.109|56=EXECUTOR|11=1|54=1|55=1|10=213|
2022-12-06 14:47:17.113 +08:00 [DBG] FSEND: 8=FIX.4.4|9=125|35=8|34=6|49=EXECUTOR|52=20221206-06:47:17.112|56=CLIENT1|6=0|14=0|17=REJECTED|37=REJECTED|39=8|54=7|55=ATOMUSDT|150=8|151=0|10=167|
2022-12-06 14:47:23.961 +08:00 [DBG] FRECV: 8=FIX.4.4|9=73|35=H|34=6|49=CLIENT1|52=20221206-06:47:23.959|56=EXECUTOR|11=1|54=1|55=1|10=224|
2022-12-06 14:47:23.963 +08:00 [DBG] FSEND: 8=FIX.4.4|9=125|35=8|34=7|49=EXECUTOR|52=20221206-06:47:23.962|56=CLIENT1|6=0|14=0|17=REJECTED|37=REJECTED|39=8|54=7|55=ATOMUSDT|150=8|151=0|10=178|
2022-12-06 14:47:27.944 +08:00 [DBG] FRECV: 8=FIX.4.4|9=99|35=q|34=7|49=CLIENT1|52=20221206-06:47:27.943|56=EXECUTOR|11=1|55=1|60=20221206-14:47:27.335|530=1|10=020|
2022-12-06 14:47:30.028 +08:00 [DBG] FRECV: 8=FIX.4.4|9=58|35=5|34=8|49=CLIENT1|52=20221206-06:47:30.028|56=EXECUTOR|10=065|
2022-12-06 14:47:30.029 +08:00 [DBG] FSEND: 8=FIX.4.4|9=58|35=5|34=8|49=EXECUTOR|52=20221206-06:47:30.029|56=CLIENT1|10=066|
</pre>
<!--Created using ToHtml.com on 2022-12-06 06:51:21 UTC -->